{
  "contractName": "Doctor",
  "abi": [
    {
      "anonymous": false,
      "inputs": [
        {
          "indexed": false,
          "internalType": "uint32",
          "name": "doctorId",
          "type": "uint32"
        },
        {
          "indexed": false,
          "internalType": "string",
          "name": "firstName",
          "type": "string"
        },
        {
          "indexed": false,
          "internalType": "string",
          "name": "lastName",
          "type": "string"
        }
      ],
      "name": "NewDoctor",
      "type": "event"
    },
    {
      "anonymous": false,
      "inputs": [
        {
          "indexed": true,
          "internalType": "address",
          "name": "previousOwner",
          "type": "address"
        },
        {
          "indexed": true,
          "internalType": "address",
          "name": "newOwner",
          "type": "address"
        }
      ],
      "name": "OwnershipTransferred",
      "type": "event"
    },
    {
      "constant": true,
      "inputs": [
        {
          "internalType": "address",
          "name": "",
          "type": "address"
        }
      ],
      "name": "doctorCount",
      "outputs": [
        {
          "internalType": "uint16",
          "name": "",
          "type": "uint16"
        }
      ],
      "payable": false,
      "stateMutability": "view",
      "type": "function"
    },
    {
      "constant": true,
      "inputs": [
        {
          "internalType": "uint256",
          "name": "",
          "type": "uint256"
        }
      ],
      "name": "doctors",
      "outputs": [
        {
          "internalType": "uint32",
          "name": "doctorId",
          "type": "uint32"
        },
        {
          "internalType": "string",
          "name": "firstName",
          "type": "string"
        },
        {
          "internalType": "string",
          "name": "lastName",
          "type": "string"
        },
        {
          "internalType": "string",
          "name": "hospitalAddress",
          "type": "string"
        }
      ],
      "payable": false,
      "stateMutability": "view",
      "type": "function"
    },
    {
      "constant": true,
      "inputs": [],
      "name": "isOwner",
      "outputs": [
        {
          "internalType": "bool",
          "name": "",
          "type": "bool"
        }
      ],
      "payable": false,
      "stateMutability": "view",
      "type": "function"
    },
    {
      "constant": true,
      "inputs": [],
      "name": "owner",
      "outputs": [
        {
          "internalType": "address payable",
          "name": "",
          "type": "address"
        }
      ],
      "payable": false,
      "stateMutability": "view",
      "type": "function"
    },
    {
      "constant": true,
      "inputs": [
        {
          "internalType": "address",
          "name": "",
          "type": "address"
        }
      ],
      "name": "ownerPatientCount",
      "outputs": [
        {
          "internalType": "uint32",
          "name": "",
          "type": "uint32"
        }
      ],
      "payable": false,
      "stateMutability": "view",
      "type": "function"
    },
    {
      "constant": false,
      "inputs": [],
      "name": "renounceOwnership",
      "outputs": [],
      "payable": false,
      "stateMutability": "nonpayable",
      "type": "function"
    },
    {
      "constant": false,
      "inputs": [
        {
          "internalType": "address payable",
          "name": "newOwner",
          "type": "address"
        }
      ],
      "name": "transferOwnership",
      "outputs": [],
      "payable": false,
      "stateMutability": "nonpayable",
      "type": "function"
    },
    {
      "constant": false,
      "inputs": [
        {
          "internalType": "string",
          "name": "_firstName",
          "type": "string"
        },
        {
          "internalType": "string",
          "name": "_lastName",
          "type": "string"
        },
        {
          "internalType": "string",
          "name": "_hospitalAddress",
          "type": "string"
        },
        {
          "internalType": "address",
          "name": "addressDoctor",
          "type": "address"
        }
      ],
      "name": "addDoctor",
      "outputs": [],
      "payable": false,
      "stateMutability": "nonpayable",
      "type": "function"
    }
  ],
  "bytecode": "0x608060405260008060146101000a81548163ffffffff021916908363ffffffff160217905550336000806101000a81548173ffffffffffffffffffffffffffffffffffffffff021916908373ffffffffffffffffffffffffffffffffffffffff1602179055506000809054906101000a900473ffffffffffffffffffffffffffffffffffffffff1673ffffffffffffffffffffffffffffffffffffffff16600073ffffffffffffffffffffffffffffffffffffffff167f8be0079c531659141344cd1fd0a4f28419497f9722a3daafe3b4186f6b6457e060405160405180910390a3611397806100f06000396000f3fe608060405234801561001057600080fd5b50600436106100875760003560e01c8063715018a61161005b578063715018a6146104eb5780638da5cb5b146104f55780638f32d59b1461053f578063f2fde38b1461056157610087565b806230e6d31461008c578063099ddfbd146102955780632da40f28146102f55780636efb1b8414610359575b600080fd5b610293600480360360808110156100a257600080fd5b81019080803590602001906401000000008111156100bf57600080fd5b8201836020820111156100d157600080fd5b803590602001918460018302840111640100000000831117156100f357600080fd5b91908080601f016020809104026020016040519081016040528093929190818152602001838380828437600081840152601f19601f8201169050808301925050505050505091929192908035906020019064010000000081111561015657600080fd5b82018360208201111561016857600080fd5b8035906020019184600183028401116401000000008311171561018a57600080fd5b91908080601f016020809104026020016040519081016040528093929190818152602001838380828437600081840152601f19601f820116905080830192505050505050509192919290803590602001906401000000008111156101ed57600080fd5b8201836020820111156101ff57600080fd5b8035906020019184600183028401116401000000008311171561022157600080fd5b91908080601f016020809104026020016040519081016040528093929190818152602001838380828437600081840152601f19601f820116905080830192505050505050509192919290803573ffffffffffffffffffffffffffffffffffffffff1690602001909291905050506105a5565b005b6102d7600480360360208110156102ab57600080fd5b81019080803573ffffffffffffffffffffffffffffffffffffffff169060200190929190505050610a5a565b604051808261ffff1661ffff16815260200191505060405180910390f35b6103376004803603602081101561030b57600080fd5b81019080803573ffffffffffffffffffffffffffffffffffffffff169060200190929190505050610a7b565b604051808263ffffffff1663ffffffff16815260200191505060405180910390f35b6103856004803603602081101561036f57600080fd5b8101908080359060200190929190505050610a9e565b604051808563ffffffff1663ffffffff168152602001806020018060200180602001848103845287818151815260200191508051906020019080838360005b838110156103df5780820151818401526020810190506103c4565b50505050905090810190601f16801561040c5780820380516001836020036101000a031916815260200191505b50848103835286818151815260200191508051906020019080838360005b8381101561044557808201518184015260208101905061042a565b50505050905090810190601f1680156104725780820380516001836020036101000a031916815260200191505b50848103825285818151815260200191508051906020019080838360005b838110156104ab578082015181840152602081019050610490565b50505050905090810190601f1680156104d85780820380516001836020036101000a031916815260200191505b5097505050505050505060405180910390f35b6104f3610cb3565b005b6104fd610dec565b604051808273ffffffffffffffffffffffffffffffffffffffff1673ffffffffffffffffffffffffffffffffffffffff16815260200191505060405180910390f35b610547610e15565b604051808215151515815260200191505060405180910390f35b6105a36004803603602081101561057757600080fd5b81019080803573ffffffffffffffffffffffffffffffffffffffff169060200190929190505050610e6c565b005b6105ad610e15565b61061f576040517f08c379a00000000000000000000000000000000000000000000000000000000081526004018080602001828103825260158152602001807f73656e646572206e6f7420617574686f72697a6564000000000000000000000081525060200191505060405180910390fd5b6000600360008373ffffffffffffffffffffffffffffffffffffffff1673ffffffffffffffffffffffffffffffffffffffff16815260200190815260200160002060009054906101000a900461ffff1661ffff16146106c9576040517f08c379a00000000000000000000000000000000000000000000000000000000081526004018080602001828103825260308152602001806113336030913960400191505060405180910390fd5b6106f56001600060149054906101000a900463ffffffff1663ffffffff16610ef290919063ffffffff16565b600060146101000a81548163ffffffff021916908363ffffffff16021790555060006107436001600060149054906101000a900463ffffffff1663ffffffff16610f8690919063ffffffff16565b9050600160405180608001604052808363ffffffff168152602001878152602001868152602001858152509080600181540180825580915050906001820390600052602060002090600402016000909192909190915060008201518160000160006101000a81548163ffffffff021916908363ffffffff16021790555060208201518160010190805190602001906107dc92919061128d565b5060408201518160020190805190602001906107f992919061128d565b50606082015181600301908051906020019061081692919061128d565b5050505081600260008363ffffffff1663ffffffff16815260200190815260200160002060006101000a81548173ffffffffffffffffffffffffffffffffffffffff021916908373ffffffffffffffffffffffffffffffffffffffff1602179055506108dd6001600360008573ffffffffffffffffffffffffffffffffffffffff1673ffffffffffffffffffffffffffffffffffffffff16815260200190815260200160002060009054906101000a900461ffff1661ffff16610fd090919063ffffffff16565b600360008473ffffffffffffffffffffffffffffffffffffffff1673ffffffffffffffffffffffffffffffffffffffff16815260200190815260200160002060006101000a81548161ffff021916908361ffff1602179055507ff7e5f435fdefaa9ef5ed1e9b2e2bf9b6efb0d3dafa1c5b157f35b13522608dfc818686604051808463ffffffff1663ffffffff1681526020018060200180602001838103835285818151815260200191508051906020019080838360005b838110156109b0578082015181840152602081019050610995565b50505050905090810190601f1680156109dd5780820380516001836020036101000a031916815260200191505b50838103825284818151815260200191508051906020019080838360005b83811015610a165780820151818401526020810190506109fb565b50505050905090810190601f168015610a435780820380516001836020036101000a031916815260200191505b509550505050505060405180910390a15050505050565b60036020528060005260406000206000915054906101000a900461ffff1681565b60046020528060005260406000206000915054906101000a900463ffffffff1681565b60018181548110610aab57fe5b90600052602060002090600402016000915090508060000160009054906101000a900463ffffffff1690806001018054600181600116156101000203166002900480601f016020809104026020016040519081016040528092919081815260200182805460018160011615610100020316600290048015610b6d5780601f10610b4257610100808354040283529160200191610b6d565b820191906000526020600020905b815481529060010190602001808311610b5057829003601f168201915b505050505090806002018054600181600116156101000203166002900480601f016020809104026020016040519081016040528092919081815260200182805460018160011615610100020316600290048015610c0b5780601f10610be057610100808354040283529160200191610c0b565b820191906000526020600020905b815481529060010190602001808311610bee57829003601f168201915b505050505090806003018054600181600116156101000203166002900480601f016020809104026020016040519081016040528092919081815260200182805460018160011615610100020316600290048015610ca95780601f10610c7e57610100808354040283529160200191610ca9565b820191906000526020600020905b815481529060010190602001808311610c8c57829003601f168201915b5050505050905084565b610cbb610e15565b610d2d576040517f08c379a00000000000000000000000000000000000000000000000000000000081526004018080602001828103825260158152602001807f73656e646572206e6f7420617574686f72697a6564000000000000000000000081525060200191505060405180910390fd5b600073ffffffffffffffffffffffffffffffffffffffff166000809054906101000a900473ffffffffffffffffffffffffffffffffffffffff1673ffffffffffffffffffffffffffffffffffffffff167f8be0079c531659141344cd1fd0a4f28419497f9722a3daafe3b4186f6b6457e060405160405180910390a360008060006101000a81548173ffffffffffffffffffffffffffffffffffffffff021916908373ffffffffffffffffffffffffffffffffffffffff160217905550565b60008060009054906101000a900473ffffffffffffffffffffffffffffffffffffffff16905090565b60008060009054906101000a900473ffffffffffffffffffffffffffffffffffffffff1673ffffffffffffffffffffffffffffffffffffffff163373ffffffffffffffffffffffffffffffffffffffff1614905090565b610e74610e15565b610ee6576040517f08c379a00000000000000000000000000000000000000000000000000000000081526004018080602001828103825260158152602001807f73656e646572206e6f7420617574686f72697a6564000000000000000000000081525060200191505060405180910390fd5b610eef81611060565b50565b60008082840190508363ffffffff168163ffffffff161015610f7c576040517f08c379a000000000000000000000000000000000000000000000000000000000815260040180806020018281038252601b8152602001807f536166654d6174683a206164646974696f6e206f766572666c6f77000000000081525060200191505060405180910390fd5b8091505092915050565b6000610fc883836040518060400160405280601e81526020017f536166654d6174683a207375627472616374696f6e206f766572666c6f7700008152506111c1565b905092915050565b60008082840190508361ffff168161ffff161015611056576040517f08c379a000000000000000000000000000000000000000000000000000000000815260040180806020018281038252601b8152602001807f536166654d6174683a206164646974696f6e206f766572666c6f77000000000081525060200191505060405180910390fd5b8091505092915050565b600073ffffffffffffffffffffffffffffffffffffffff168173ffffffffffffffffffffffffffffffffffffffff161415611103576040517f08c379a00000000000000000000000000000000000000000000000000000000081526004018080602001828103825260138152602001807f6e6f6e2076616c6964206e6577206f776e65720000000000000000000000000081525060200191505060405180910390fd5b8073ffffffffffffffffffffffffffffffffffffffff166000809054906101000a900473ffffffffffffffffffffffffffffffffffffffff1673ffffffffffffffffffffffffffffffffffffffff167f8be0079c531659141344cd1fd0a4f28419497f9722a3daafe3b4186f6b6457e060405160405180910390a3806000806101000a81548173ffffffffffffffffffffffffffffffffffffffff021916908373ffffffffffffffffffffffffffffffffffffffff16021790555050565b60008363ffffffff168363ffffffff161115829061127a576040517f08c379a00000000000000000000000000000000000000000000000000000000081526004018080602001828103825283818151815260200191508051906020019080838360005b8381101561123f578082015181840152602081019050611224565b50505050905090810190601f16801561126c5780820380516001836020036101000a031916815260200191505b509250505060405180910390fd5b5060008385039050809150509392505050565b828054600181600116156101000203166002900490600052602060002090601f016020900481019282601f106112ce57805160ff19168380011785556112fc565b828001600101855582156112fc579182015b828111156112fb5782518255916020019190600101906112e0565b5b509050611309919061130d565b5090565b61132f91905b8082111561132b576000816000905550600101611313565b5090565b9056fe53656e646572206e6f7420617574686f72697a65642e20497420616c72656164792068617320616e206163636f756e74a265627a7a7231582060aa268072ea620f7a7a28f5d2add911247633df0b94d44205fd667f2916dfba64736f6c63430005100032",
  "source": "// SPDX-License-Identifier: MIT\r\npragma solidity >=0.5.0 <0.7.0;\r\n\r\nimport \"./SafeMath.sol\";\r\nimport \"./Ownable.sol\";\r\n/**\r\n * @title Doctor\r\n * @dev Adding doctor operations\r\n */\r\n\r\ncontract Doctor is Ownable {\r\n\r\n    using SafeMath16 for uint16;\r\n    using SafeMath32 for uint32;\r\n\r\n    // address public theOwner = msg.sender; //The address of deployer\r\n\r\n    uint32 counterDoctor = 0;\r\n\r\n    struct DoctorInfo{\r\n        uint32 doctorId;\r\n        string firstName;\r\n        string lastName;\r\n        string hospitalAddress;\r\n    }\r\n\r\n    DoctorInfo[] public doctors; // record all doctors of the system\r\n\r\n    mapping (uint32 => address) eachDoctor;  // Corresponding doctorId to address\r\n    mapping (address => uint16) public doctorCount; // Corresponding address to 0 or 1 (help us to know if doctor has an account)\r\n    mapping (address => uint32) public ownerPatientCount; // Counts the number of patients added by each doctor\r\n\r\n    event NewDoctor(uint32 doctorId, string firstName, string lastName);\r\n\r\n    // Modifier to check if the sender of any called method is a deployer (owner)\r\n    /*modifier onlyTheOwner() {\r\n        require(msg.sender == theOwner,'Sender not authorized.');\r\n        _;\r\n    }*/\r\n\r\n    // Modifier to check if the sender of any called method is a doctor\r\n    modifier isDoctor(address _address) {\r\n        require(doctorCount[_address] == 1,'Sender not authorized  ::: It should be a doctor');\r\n        _;\r\n    }\r\n\r\n    // Add doctor. Only the deployer of the contract can call this method\r\n    function addDoctor(string memory _firstName,\r\n        string memory _lastName,\r\n        string memory _hospitalAddress,\r\n        address addressDoctor) public onlyOwner {\r\n        require(doctorCount[addressDoctor] == 0,'Sender not authorized. It already has an account');\r\n        counterDoctor = counterDoctor.add(1);\r\n        uint32 idDoctor = counterDoctor.sub(1);\r\n        doctors.push(DoctorInfo(idDoctor, _firstName, _lastName, _hospitalAddress));\r\n        eachDoctor[idDoctor] = addressDoctor;\r\n        doctorCount[addressDoctor] = doctorCount[addressDoctor].add(1);\r\n        emit NewDoctor(idDoctor, _firstName, _lastName);\r\n    }\r\n\r\n    /* We can add other method as:\r\n    - getAllDoctors\r\n    - getAnyDoctor by its doctorId or others parameters*/\r\n}",
  "sourcePath": "C:\\Code\\healthBook\\contracts\\Doctor.sol",
  "compiler": {
    "name": "solc",
    "version": "0.5.16+commit.9c3226ce.Emscripten.clang"
  },
  "schemaVersion": "3.2.2",
  "updatedAt": "2020-07-15T09:35:03.250Z",
  "devdoc": {
    "details": "Adding doctor operations",
    "methods": {
      "isOwner()": {
        "return": "true if `msg.sender` is the owner of the contract."
      },
      "owner()": {
        "return": "the address of the owner."
      },
      "renounceOwnership()": {
        "details": "Allows the current owner to relinquish control of the contract."
      },
      "transferOwnership(address)": {
        "details": "Allows the current owner to transfer control of the contract to a newOwner.",
        "params": {
          "newOwner": "The address to transfer ownership to."
        }
      }
    },
    "title": "Doctor"
  },
  "userdoc": {
    "methods": {
      "renounceOwnership()": {
        "notice": "Renouncing to ownership will leave the contract without an owner. It will not be possible to call the functions with the `onlyOwner` modifier anymore."
      }
    }
  }
}