{
  "contractName": "Patient",
  "abi": [
    {
      "anonymous": false,
      "inputs": [
        {
          "indexed": false,
          "internalType": "uint32",
          "name": "doctorId",
          "type": "uint32"
        },
        {
          "indexed": false,
          "internalType": "string",
          "name": "firstName",
          "type": "string"
        },
        {
          "indexed": false,
          "internalType": "string",
          "name": "lastName",
          "type": "string"
        }
      ],
      "name": "NewDoctor",
      "type": "event"
    },
    {
      "anonymous": false,
      "inputs": [
        {
          "indexed": false,
          "internalType": "uint32",
          "name": "patientId",
          "type": "uint32"
        },
        {
          "indexed": false,
          "internalType": "string",
          "name": "firstName",
          "type": "string"
        },
        {
          "indexed": false,
          "internalType": "string",
          "name": "lastName",
          "type": "string"
        }
      ],
      "name": "NewPatient",
      "type": "event"
    },
    {
      "anonymous": false,
      "inputs": [
        {
          "indexed": true,
          "internalType": "address",
          "name": "previousOwner",
          "type": "address"
        },
        {
          "indexed": true,
          "internalType": "address",
          "name": "newOwner",
          "type": "address"
        }
      ],
      "name": "OwnershipTransferred",
      "type": "event"
    },
    {
      "constant": false,
      "inputs": [
        {
          "internalType": "string",
          "name": "_firstName",
          "type": "string"
        },
        {
          "internalType": "string",
          "name": "_lastName",
          "type": "string"
        },
        {
          "internalType": "string",
          "name": "_hospitalAddress",
          "type": "string"
        },
        {
          "internalType": "address",
          "name": "addressDoctor",
          "type": "address"
        }
      ],
      "name": "addDoctor",
      "outputs": [],
      "payable": false,
      "stateMutability": "nonpayable",
      "type": "function"
    },
    {
      "constant": true,
      "inputs": [
        {
          "internalType": "uint256",
          "name": "",
          "type": "uint256"
        }
      ],
      "name": "allAllergies",
      "outputs": [
        {
          "internalType": "uint256",
          "name": "allergytId",
          "type": "uint256"
        },
        {
          "internalType": "string",
          "name": "allergyName",
          "type": "string"
        },
        {
          "internalType": "string",
          "name": "observation",
          "type": "string"
        },
        {
          "internalType": "uint256",
          "name": "patientId",
          "type": "uint256"
        }
      ],
      "payable": false,
      "stateMutability": "view",
      "type": "function"
    },
    {
      "constant": true,
      "inputs": [
        {
          "internalType": "uint256",
          "name": "",
          "type": "uint256"
        }
      ],
      "name": "allSpecialtyMedicine",
      "outputs": [
        {
          "internalType": "uint256",
          "name": "documentId",
          "type": "uint256"
        },
        {
          "internalType": "string",
          "name": "medicationCode",
          "type": "string"
        },
        {
          "internalType": "string",
          "name": "medicationName",
          "type": "string"
        },
        {
          "internalType": "string",
          "name": "normalStartDate",
          "type": "string"
        },
        {
          "internalType": "string",
          "name": "normalEndDate",
          "type": "string"
        },
        {
          "internalType": "string",
          "name": "DosageUnit",
          "type": "string"
        },
        {
          "internalType": "uint256",
          "name": "DosageQuantity",
          "type": "uint256"
        },
        {
          "internalType": "string",
          "name": "prescriptionDate",
          "type": "string"
        },
        {
          "internalType": "string",
          "name": "observation",
          "type": "string"
        },
        {
          "internalType": "uint256",
          "name": "patientId",
          "type": "uint256"
        }
      ],
      "payable": false,
      "stateMutability": "view",
      "type": "function"
    },
    {
      "constant": true,
      "inputs": [
        {
          "internalType": "address",
          "name": "",
          "type": "address"
        }
      ],
      "name": "doctorCount",
      "outputs": [
        {
          "internalType": "uint16",
          "name": "",
          "type": "uint16"
        }
      ],
      "payable": false,
      "stateMutability": "view",
      "type": "function"
    },
    {
      "constant": true,
      "inputs": [
        {
          "internalType": "uint256",
          "name": "",
          "type": "uint256"
        }
      ],
      "name": "doctors",
      "outputs": [
        {
          "internalType": "uint32",
          "name": "doctorId",
          "type": "uint32"
        },
        {
          "internalType": "string",
          "name": "firstName",
          "type": "string"
        },
        {
          "internalType": "string",
          "name": "lastName",
          "type": "string"
        },
        {
          "internalType": "string",
          "name": "hospitalAddress",
          "type": "string"
        }
      ],
      "payable": false,
      "stateMutability": "view",
      "type": "function"
    },
    {
      "constant": true,
      "inputs": [],
      "name": "isOwner",
      "outputs": [
        {
          "internalType": "bool",
          "name": "",
          "type": "bool"
        }
      ],
      "payable": false,
      "stateMutability": "view",
      "type": "function"
    },
    {
      "constant": true,
      "inputs": [
        {
          "internalType": "uint256",
          "name": "",
          "type": "uint256"
        }
      ],
      "name": "orderExamination",
      "outputs": [
        {
          "internalType": "uint256",
          "name": "docExaminationId",
          "type": "uint256"
        },
        {
          "internalType": "uint256",
          "name": "patientId",
          "type": "uint256"
        },
        {
          "internalType": "string",
          "name": "codeExaminationName",
          "type": "string"
        },
        {
          "internalType": "string",
          "name": "examinationName",
          "type": "string"
        },
        {
          "internalType": "string",
          "name": "orderedDate",
          "type": "string"
        }
      ],
      "payable": false,
      "stateMutability": "view",
      "type": "function"
    },
    {
      "constant": true,
      "inputs": [],
      "name": "owner",
      "outputs": [
        {
          "internalType": "address payable",
          "name": "",
          "type": "address"
        }
      ],
      "payable": false,
      "stateMutability": "view",
      "type": "function"
    },
    {
      "constant": true,
      "inputs": [
        {
          "internalType": "address",
          "name": "",
          "type": "address"
        }
      ],
      "name": "ownerPatientCount",
      "outputs": [
        {
          "internalType": "uint32",
          "name": "",
          "type": "uint32"
        }
      ],
      "payable": false,
      "stateMutability": "view",
      "type": "function"
    },
    {
      "constant": true,
      "inputs": [
        {
          "internalType": "uint256",
          "name": "",
          "type": "uint256"
        }
      ],
      "name": "patients",
      "outputs": [
        {
          "internalType": "uint32",
          "name": "patientId",
          "type": "uint32"
        },
        {
          "internalType": "string",
          "name": "firstName",
          "type": "string"
        },
        {
          "internalType": "string",
          "name": "lastName",
          "type": "string"
        },
        {
          "internalType": "string",
          "name": "gender",
          "type": "string"
        },
        {
          "internalType": "string",
          "name": "addressOfPatient",
          "type": "string"
        }
      ],
      "payable": false,
      "stateMutability": "view",
      "type": "function"
    },
    {
      "constant": false,
      "inputs": [],
      "name": "renounceOwnership",
      "outputs": [],
      "payable": false,
      "stateMutability": "nonpayable",
      "type": "function"
    },
    {
      "constant": false,
      "inputs": [
        {
          "internalType": "address payable",
          "name": "newOwner",
          "type": "address"
        }
      ],
      "name": "transferOwnership",
      "outputs": [],
      "payable": false,
      "stateMutability": "nonpayable",
      "type": "function"
    },
    {
      "constant": false,
      "inputs": [
        {
          "internalType": "string",
          "name": "_firstName",
          "type": "string"
        },
        {
          "internalType": "string",
          "name": "_lastName",
          "type": "string"
        },
        {
          "internalType": "string",
          "name": "_gender",
          "type": "string"
        },
        {
          "internalType": "string",
          "name": "_addressOfPatient",
          "type": "string"
        }
      ],
      "name": "addPatient",
      "outputs": [],
      "payable": false,
      "stateMutability": "nonpayable",
      "type": "function"
    },
    {
      "constant": true,
      "inputs": [],
      "name": "getAllPatient",
      "outputs": [
        {
          "components": [
            {
              "internalType": "uint32",
              "name": "patientId",
              "type": "uint32"
            },
            {
              "internalType": "string",
              "name": "firstName",
              "type": "string"
            },
            {
              "internalType": "string",
              "name": "lastName",
              "type": "string"
            },
            {
              "internalType": "string",
              "name": "gender",
              "type": "string"
            },
            {
              "internalType": "string",
              "name": "addressOfPatient",
              "type": "string"
            }
          ],
          "internalType": "struct Patient.PatientInfo[]",
          "name": "",
          "type": "tuple[]"
        }
      ],
      "payable": false,
      "stateMutability": "view",
      "type": "function"
    },
    {
      "constant": false,
      "inputs": [
        {
          "internalType": "string",
          "name": "_bloodGroup",
          "type": "string"
        },
        {
          "internalType": "string",
          "name": "_rhesus",
          "type": "string"
        },
        {
          "internalType": "string",
          "name": "_electrophoresis",
          "type": "string"
        },
        {
          "internalType": "uint256",
          "name": "_patientId",
          "type": "uint256"
        }
      ],
      "name": "setNonVariableExamination",
      "outputs": [],
      "payable": false,
      "stateMutability": "nonpayable",
      "type": "function"
    },
    {
      "constant": true,
      "inputs": [
        {
          "internalType": "uint256",
          "name": "_patientId",
          "type": "uint256"
        }
      ],
      "name": "getNonVariableExamination",
      "outputs": [
        {
          "components": [
            {
              "internalType": "string",
              "name": "bloodGroup",
              "type": "string"
            },
            {
              "internalType": "string",
              "name": "rhesus",
              "type": "string"
            },
            {
              "internalType": "string",
              "name": "electrophoresis",
              "type": "string"
            },
            {
              "internalType": "uint256",
              "name": "patientId",
              "type": "uint256"
            }
          ],
          "internalType": "struct NonVariableExamination.NonVariableExaminationInfo",
          "name": "",
          "type": "tuple"
        }
      ],
      "payable": false,
      "stateMutability": "view",
      "type": "function"
    },
    {
      "constant": false,
      "inputs": [
        {
          "internalType": "uint256",
          "name": "_documentId",
          "type": "uint256"
        },
        {
          "internalType": "string",
          "name": "_medicationCode",
          "type": "string"
        },
        {
          "internalType": "string",
          "name": "_medicationName",
          "type": "string"
        },
        {
          "internalType": "string",
          "name": "_normalStartDate",
          "type": "string"
        },
        {
          "internalType": "string",
          "name": "_normalEndDate",
          "type": "string"
        },
        {
          "internalType": "string",
          "name": "_DosageUnit",
          "type": "string"
        },
        {
          "internalType": "uint256",
          "name": "_DosageQuantity",
          "type": "uint256"
        },
        {
          "internalType": "string",
          "name": "_prescriptionDate",
          "type": "string"
        },
        {
          "internalType": "string",
          "name": "_observation",
          "type": "string"
        },
        {
          "internalType": "uint256",
          "name": "_patientId",
          "type": "uint256"
        }
      ],
      "name": "prescribeSpecialtyMedicine",
      "outputs": [],
      "payable": false,
      "stateMutability": "nonpayable",
      "type": "function"
    },
    {
      "constant": false,
      "inputs": [
        {
          "internalType": "uint256",
          "name": "_patientId",
          "type": "uint256"
        },
        {
          "internalType": "uint256",
          "name": "_documentId",
          "type": "uint256"
        },
        {
          "internalType": "string",
          "name": "_medicationCode",
          "type": "string"
        },
        {
          "internalType": "string",
          "name": "_observation",
          "type": "string"
        }
      ],
      "name": "setObservationAfterPrescription",
      "outputs": [
        {
          "internalType": "bool",
          "name": "",
          "type": "bool"
        }
      ],
      "payable": false,
      "stateMutability": "nonpayable",
      "type": "function"
    },
    {
      "constant": true,
      "inputs": [
        {
          "internalType": "uint256",
          "name": "_patientId",
          "type": "uint256"
        }
      ],
      "name": "getAllPrescribeMedicine",
      "outputs": [
        {
          "components": [
            {
              "internalType": "uint256",
              "name": "documentId",
              "type": "uint256"
            },
            {
              "internalType": "string",
              "name": "medicationCode",
              "type": "string"
            },
            {
              "internalType": "string",
              "name": "medicationName",
              "type": "string"
            },
            {
              "internalType": "string",
              "name": "normalStartDate",
              "type": "string"
            },
            {
              "internalType": "string",
              "name": "normalEndDate",
              "type": "string"
            },
            {
              "internalType": "string",
              "name": "DosageUnit",
              "type": "string"
            },
            {
              "internalType": "uint256",
              "name": "DosageQuantity",
              "type": "uint256"
            },
            {
              "internalType": "string",
              "name": "prescriptionDate",
              "type": "string"
            },
            {
              "internalType": "string",
              "name": "observation",
              "type": "string"
            },
            {
              "internalType": "uint256",
              "name": "patientId",
              "type": "uint256"
            }
          ],
          "internalType": "struct SpecialtyMedicine.SpecialtyMedicineInfo[]",
          "name": "",
          "type": "tuple[]"
        }
      ],
      "payable": false,
      "stateMutability": "view",
      "type": "function"
    },
    {
      "constant": false,
      "inputs": [
        {
          "internalType": "uint256",
          "name": "_allergytId",
          "type": "uint256"
        },
        {
          "internalType": "string",
          "name": "_allergyName",
          "type": "string"
        },
        {
          "internalType": "string",
          "name": "_observation",
          "type": "string"
        },
        {
          "internalType": "uint256",
          "name": "_patientId",
          "type": "uint256"
        }
      ],
      "name": "addAllergy",
      "outputs": [],
      "payable": false,
      "stateMutability": "nonpayable",
      "type": "function"
    },
    {
      "constant": true,
      "inputs": [
        {
          "internalType": "uint256",
          "name": "_patientId",
          "type": "uint256"
        }
      ],
      "name": "getAllergies",
      "outputs": [
        {
          "components": [
            {
              "internalType": "uint256",
              "name": "allergytId",
              "type": "uint256"
            },
            {
              "internalType": "string",
              "name": "allergyName",
              "type": "string"
            },
            {
              "internalType": "string",
              "name": "observation",
              "type": "string"
            },
            {
              "internalType": "uint256",
              "name": "patientId",
              "type": "uint256"
            }
          ],
          "internalType": "struct Allergy.AllergyInfo[]",
          "name": "",
          "type": "tuple[]"
        }
      ],
      "payable": false,
      "stateMutability": "view",
      "type": "function"
    },
    {
      "constant": false,
      "inputs": [
        {
          "internalType": "uint256",
          "name": "_patientId",
          "type": "uint256"
        },
        {
          "internalType": "uint256",
          "name": "_docExaminationId",
          "type": "uint256"
        },
        {
          "internalType": "string",
          "name": "_codeExaminationName",
          "type": "string"
        },
        {
          "internalType": "string",
          "name": "_examinationName",
          "type": "string"
        },
        {
          "internalType": "string",
          "name": "_orderedDate",
          "type": "string"
        }
      ],
      "name": "orderAnExamination",
      "outputs": [],
      "payable": false,
      "stateMutability": "nonpayable",
      "type": "function"
    },
    {
      "constant": true,
      "inputs": [
        {
          "internalType": "uint256",
          "name": "_patientId",
          "type": "uint256"
        }
      ],
      "name": "allExaminationOrderToPatient",
      "outputs": [
        {
          "components": [
            {
              "internalType": "uint256",
              "name": "docExaminationId",
              "type": "uint256"
            },
            {
              "internalType": "uint256",
              "name": "patientId",
              "type": "uint256"
            },
            {
              "internalType": "string",
              "name": "codeExaminationName",
              "type": "string"
            },
            {
              "internalType": "string",
              "name": "examinationName",
              "type": "string"
            },
            {
              "internalType": "string",
              "name": "orderedDate",
              "type": "string"
            }
          ],
          "internalType": "struct Examination.ExaminationInfo[]",
          "name": "",
          "type": "tuple[]"
        }
      ],
      "payable": false,
      "stateMutability": "view",
      "type": "function"
    },
    {
      "constant": false,
      "inputs": [
        {
          "internalType": "uint256",
          "name": "_docResultId",
          "type": "uint256"
        },
        {
          "internalType": "uint256",
          "name": "_docExaminationId",
          "type": "uint256"
        },
        {
          "internalType": "string",
          "name": "_resultCode",
          "type": "string"
        },
        {
          "internalType": "string",
          "name": "_codeResultName",
          "type": "string"
        },
        {
          "internalType": "string",
          "name": "_observationDate",
          "type": "string"
        }
      ],
      "name": "addResultOfOrderExamination",
      "outputs": [],
      "payable": false,
      "stateMutability": "nonpayable",
      "type": "function"
    },
    {
      "constant": true,
      "inputs": [
        {
          "internalType": "uint256",
          "name": "_docExaminationId",
          "type": "uint256"
        }
      ],
      "name": "getResultOfOrderExamination",
      "outputs": [
        {
          "components": [
            {
              "internalType": "uint256",
              "name": "docResultId",
              "type": "uint256"
            },
            {
              "internalType": "uint256",
              "name": "docExaminationId",
              "type": "uint256"
            },
            {
              "internalType": "string",
              "name": "resultCode",
              "type": "string"
            },
            {
              "internalType": "string",
              "name": "codeResultName",
              "type": "string"
            },
            {
              "internalType": "string",
              "name": "observationDate",
              "type": "string"
            }
          ],
          "internalType": "struct ResultExamination.ResultExaminationInfo",
          "name": "",
          "type": "tuple"
        }
      ],
      "payable": false,
      "stateMutability": "view",
      "type": "function"
    },
    {
      "constant": false,
      "inputs": [
        {
          "internalType": "uint256",
          "name": "_docResultId",
          "type": "uint256"
        },
        {
          "internalType": "string",
          "name": "_componentName",
          "type": "string"
        },
        {
          "internalType": "string",
          "name": "_labName",
          "type": "string"
        },
        {
          "internalType": "string",
          "name": "_resultValue",
          "type": "string"
        },
        {
          "internalType": "string",
          "name": "_resultObservation",
          "type": "string"
        }
      ],
      "name": "addResultDetailExamination",
      "outputs": [],
      "payable": false,
      "stateMutability": "nonpayable",
      "type": "function"
    },
    {
      "constant": true,
      "inputs": [
        {
          "internalType": "uint256",
          "name": "_docResultId",
          "type": "uint256"
        }
      ],
      "name": "getResultDetailExamination",
      "outputs": [
        {
          "components": [
            {
              "internalType": "uint256",
              "name": "docResultId",
              "type": "uint256"
            },
            {
              "internalType": "string",
              "name": "componentName",
              "type": "string"
            },
            {
              "internalType": "string",
              "name": "labName",
              "type": "string"
            },
            {
              "internalType": "string",
              "name": "resultValue",
              "type": "string"
            },
            {
              "internalType": "string",
              "name": "resultObservation",
              "type": "string"
            }
          ],
          "internalType": "struct ResultExaminationDetail.ResultExaminationDetailInfo",
          "name": "",
          "type": "tuple"
        }
      ],
      "payable": false,
      "stateMutability": "view",
      "type": "function"
    }
  ],
  "bytecode": "0x608060405260008060146101000a81548163ffffffff021916908363ffffffff1602179055506000600760006101000a81548163ffffffff021916908363ffffffff160217905550336000806101000a81548173ffffffffffffffffffffffffffffffffffffffff021916908373ffffffffffffffffffffffffffffffffffffffff1602179055506000809054906101000a900473ffffffffffffffffffffffffffffffffffffffff1673ffffffffffffffffffffffffffffffffffffffff16600073ffffffffffffffffffffffffffffffffffffffff167f8be0079c531659141344cd1fd0a4f28419497f9722a3daafe3b4186f6b6457e060405160405180910390a3615bbe806101126000396000f3fe608060405234801561001057600080fd5b50600436106101a85760003560e01c80638f32d59b116100f9578063d1b304ec11610097578063f2fde38b11610071578063f2fde38b14610540578063fa4bf0151461055c578063fea6c6911461058c578063ff8e704f146105a8576101a8565b8063d1b304ec146104a7578063d878e8f8146104d7578063da94497b14610507576101a8565b80639852f377116100d35780639852f377146103f8578063a135f52614610428578063b8c6b1cf14610444578063c73ee74b14610474576101a8565b80638f32d59b1461037657806393119a831461039457806397f6c84c146103c8576101a8565b806353b7314411610166578063715018a611610140578063715018a6146103005780637354f8d81461030a5780638c8350fd1461033a5780638da5cb5b14610358576101a8565b806353b73144146102955780636c5fb739146102b15780636efb1b84146102cd576101a8565b806230e6d3146101ad5780630370f592146101c9578063099ddfbd146101fd5780631b4ea9391461022d5780632da40f28146102495780634c81887814610279575b600080fd5b6101c760048036036101c29190810190614300565b6105c4565b005b6101e360048036036101de9190810190614519565b61094e565b6040516101f4959493929190615745565b60405180910390f35b610217600480360361021291908101906142ae565b610b59565b604051610224919061560a565b60405180910390f35b6102476004803603610242919081019061446e565b610b7a565b005b610263600480360361025e91908101906142ae565b610d7c565b60405161027091906157ad565b60405180910390f35b610293600480360361028e919081019061479c565b610d9f565b005b6102af60048036036102aa91908101906148c2565b610f18565b005b6102cb60048036036102c69190810190614542565b61105d565b005b6102e760048036036102e29190810190614519565b6111b5565b6040516102f7949392919061580d565b60405180910390f35b6103086113ca565b005b610324600480360361031f9190810190614519565b6114d0565b60405161033191906155e8565b60405180910390f35b6103426116f7565b60405161034f9190615463565b60405180910390f35b610360611a04565b60405161036d9190615404565b60405180910390f35b61037e611a2d565b60405161038b91906154a7565b60405180910390f35b6103ae60048036036103a99190810190614519565b611a84565b6040516103bf959493929190615867565b60405180910390f35b6103e260048036036103dd9190810190614519565b611d37565b6040516103ef919061541f565b60405180910390f35b610412600480360361040d9190810190614519565b611f8c565b60405161041f91906155c6565b60405180910390f35b610442600480360361043d9190810190614619565b61224b565b005b61045e60048036036104599190810190614519565b61248c565b60405161046b9190615441565b60405180910390f35b61048e60048036036104899190810190614519565b612783565b60405161049e94939291906156f2565b60405180910390f35b6104c160048036036104bc919081019061482f565b6128f0565b6040516104ce91906154a7565b60405180910390f35b6104f160048036036104ec9190810190614519565b612b07565b6040516104fe91906155a4565b60405180910390f35b610521600480360361051c9190810190614519565b612d24565b6040516105379a99989796959493929190615625565b60405180910390f35b61055a600480360361055591908101906142d7565b6131ad565b005b61057660048036036105719190810190614519565b613200565b6040516105839190615485565b60405180910390f35b6105a660048036036105a191908101906148c2565b61378a565b005b6105c260048036036105bd91908101906143ab565b613927565b005b6105cc611a2d565b61060b576040517f08c379a000000000000000000000000000000000000000000000000000000000815260040161060290615564565b60405180910390fd5b6000600360008373ffffffffffffffffffffffffffffffffffffffff1673ffffffffffffffffffffffffffffffffffffffff16815260200190815260200160002060009054906101000a900461ffff1661ffff161461069f576040517f08c379a000000000000000000000000000000000000000000000000000000000815260040161069690615544565b60405180910390fd5b6106cb6001600060149054906101000a900463ffffffff1663ffffffff16613a3590919063ffffffff16565b600060146101000a81548163ffffffff021916908363ffffffff16021790555060006107196001600060149054906101000a900463ffffffff1663ffffffff16613a9690919063ffffffff16565b9050600160405180608001604052808363ffffffff168152602001878152602001868152602001858152509080600181540180825580915050906001820390600052602060002090600402016000909192909190915060008201518160000160006101000a81548163ffffffff021916908363ffffffff16021790555060208201518160010190805190602001906107b2929190613fc6565b5060408201518160020190805190602001906107cf929190613fc6565b5060608201518160030190805190602001906107ec929190613fc6565b5050505081600260008363ffffffff1663ffffffff16815260200190815260200160002060006101000a81548173ffffffffffffffffffffffffffffffffffffffff021916908373ffffffffffffffffffffffffffffffffffffffff1602179055506108b36001600360008573ffffffffffffffffffffffffffffffffffffffff1673ffffffffffffffffffffffffffffffffffffffff16815260200190815260200160002060009054906101000a900461ffff1661ffff16613ae090919063ffffffff16565b600360008473ffffffffffffffffffffffffffffffffffffffff1673ffffffffffffffffffffffffffffffffffffffff16815260200190815260200160002060006101000a81548161ffff021916908361ffff1602179055507ff7e5f435fdefaa9ef5ed1e9b2e2bf9b6efb0d3dafa1c5b157f35b13522608dfc81868660405161093f939291906157c8565b60405180910390a15050505050565b6009818154811061095b57fe5b9060005260206000209060050201600091509050806000015490806001015490806002018054600181600116156101000203166002900480601f016020809104026020016040519081016040528092919081815260200182805460018160011615610100020316600290048015610a135780601f106109e857610100808354040283529160200191610a13565b820191906000526020600020905b8154815290600101906020018083116109f657829003601f168201915b505050505090806003018054600181600116156101000203166002900480601f016020809104026020016040519081016040528092919081815260200182805460018160011615610100020316600290048015610ab15780601f10610a8657610100808354040283529160200191610ab1565b820191906000526020600020905b815481529060010190602001808311610a9457829003601f168201915b505050505090806004018054600181600116156101000203166002900480601f016020809104026020016040519081016040528092919081815260200182805460018160011615610100020316600290048015610b4f5780601f10610b2457610100808354040283529160200191610b4f565b820191906000526020600020905b815481529060010190602001808311610b3257829003601f168201915b5050505050905085565b60036020528060005260406000206000915054906101000a900461ffff1681565b336001600360008373ffffffffffffffffffffffffffffffffffffffff1673ffffffffffffffffffffffffffffffffffffffff16815260200190815260200160002060009054906101000a900461ffff1661ffff1614610c0f576040517f08c379a0000000000000000000000000000000000000000000000000000000008152600401610c06906154e4565b60405180910390fd5b60006011600084815260200190815260200160002060009054906101000a900461ffff1661ffff1614610c77576040517f08c379a0000000000000000000000000000000000000000000000000000000008152600401610c6e90615504565b60405180910390fd5b604051806080016040528086815260200185815260200184815260200183815250600d60008481526020019081526020016000206000820151816000019080519060200190610cc7929190613fc6565b506020820151816001019080519060200190610ce4929190613fc6565b506040820151816002019080519060200190610d01929190613fc6565b5060608201518160030155905050610d4860016011600085815260200190815260200160002060009054906101000a900461ffff1661ffff16613ae090919063ffffffff16565b6011600084815260200190815260200160002060006101000a81548161ffff021916908361ffff1602179055505050505050565b60046020528060005260406000206000915054906101000a900463ffffffff1681565b336001600360008373ffffffffffffffffffffffffffffffffffffffff1673ffffffffffffffffffffffffffffffffffffffff16815260200190815260200160002060009054906101000a900461ffff1661ffff1614610e34576040517f08c379a0000000000000000000000000000000000000000000000000000000008152600401610e2b906154e4565b60405180910390fd5b600b60405180608001604052808781526020018681526020018581526020018481525090806001815401808255809150509060018203906000526020600020906004020160009091929091909150600082015181600001556020820151816001019080519060200190610ea8929190613fc6565b506040820151816002019080519060200190610ec5929190613fc6565b5060608201518160030155505050610efa60016010600085815260200190815260200160002054613b3d90919063ffffffff16565b60106000848152602001908152602001600020819055505050505050565b336001600360008373ffffffffffffffffffffffffffffffffffffffff1673ffffffffffffffffffffffffffffffffffffffff16815260200190815260200160002060009054906101000a900461ffff1661ffff1614610fad576040517f08c379a0000000000000000000000000000000000000000000000000000000008152600401610fa4906154e4565b60405180910390fd5b6040518060a00160405280878152602001868152602001858152602001848152602001838152506006600087815260200190815260200160002060008201518160000155602082015181600101556040820151816002019080519060200190611017929190613fc6565b506060820151816003019080519060200190611034929190613fc6565b506080820151816004019080519060200190611051929190613fc6565b50905050505050505050565b336001600360008373ffffffffffffffffffffffffffffffffffffffff1673ffffffffffffffffffffffffffffffffffffffff16815260200190815260200160002060009054906101000a900461ffff1661ffff16146110f2576040517f08c379a00000000000000000000000000000000000000000000000000000000081526004016110e9906154e4565b60405180910390fd5b6040518060a001604052808781526020018681526020018581526020018481526020018381525060056000888152602001908152602001600020600082015181600001556020820151816001019080519060200190611152929190613fc6565b50604082015181600201908051906020019061116f929190613fc6565b50606082015181600301908051906020019061118c929190613fc6565b5060808201518160040190805190602001906111a9929190613fc6565b50905050505050505050565b600181815481106111c257fe5b90600052602060002090600402016000915090508060000160009054906101000a900463ffffffff1690806001018054600181600116156101000203166002900480601f0160208091040260200160405190810160405280929190818152602001828054600181600116156101000203166002900480156112845780601f1061125957610100808354040283529160200191611284565b820191906000526020600020905b81548152906001019060200180831161126757829003601f168201915b505050505090806002018054600181600116156101000203166002900480601f0160208091040260200160405190810160405280929190818152602001828054600181600116156101000203166002900480156113225780601f106112f757610100808354040283529160200191611322565b820191906000526020600020905b81548152906001019060200180831161130557829003601f168201915b505050505090806003018054600181600116156101000203166002900480601f0160208091040260200160405190810160405280929190818152602001828054600181600116156101000203166002900480156113c05780601f10611395576101008083540402835291602001916113c0565b820191906000526020600020905b8154815290600101906020018083116113a357829003601f168201915b5050505050905084565b6113d2611a2d565b611411576040517f08c379a000000000000000000000000000000000000000000000000000000000815260040161140890615564565b60405180910390fd5b600073ffffffffffffffffffffffffffffffffffffffff166000809054906101000a900473ffffffffffffffffffffffffffffffffffffffff1673ffffffffffffffffffffffffffffffffffffffff167f8be0079c531659141344cd1fd0a4f28419497f9722a3daafe3b4186f6b6457e060405160405180910390a360008060006101000a81548173ffffffffffffffffffffffffffffffffffffffff021916908373ffffffffffffffffffffffffffffffffffffffff160217905550565b6114d8614046565b600660008381526020019081526020016000206040518060a00160405290816000820154815260200160018201548152602001600282018054600181600116156101000203166002900480601f0160208091040260200160405190810160405280929190818152602001828054600181600116156101000203166002900480156115a35780601f10611578576101008083540402835291602001916115a3565b820191906000526020600020905b81548152906001019060200180831161158657829003601f168201915b50505050508152602001600382018054600181600116156101000203166002900480601f0160208091040260200160405190810160405280929190818152602001828054600181600116156101000203166002900480156116455780601f1061161a57610100808354040283529160200191611645565b820191906000526020600020905b81548152906001019060200180831161162857829003601f168201915b50505050508152602001600482018054600181600116156101000203166002900480601f0160208091040260200160405190810160405280929190818152602001828054600181600116156101000203166002900480156116e75780601f106116bc576101008083540402835291602001916116e7565b820191906000526020600020905b8154815290600101906020018083116116ca57829003601f168201915b5050505050815250509050919050565b60606008805480602002602001604051908101604052809291908181526020016000905b828210156119fb57838290600052602060002090600502016040518060a00160405290816000820160009054906101000a900463ffffffff1663ffffffff1663ffffffff168152602001600182018054600181600116156101000203166002900480601f0160208091040260200160405190810160405280929190818152602001828054600181600116156101000203166002900480156117fd5780601f106117d2576101008083540402835291602001916117fd565b820191906000526020600020905b8154815290600101906020018083116117e057829003601f168201915b50505050508152602001600282018054600181600116156101000203166002900480601f01602080910402602001604051908101604052809291908181526020018280546001816001161561010002031660029004801561189f5780601f106118745761010080835404028352916020019161189f565b820191906000526020600020905b81548152906001019060200180831161188257829003601f168201915b50505050508152602001600382018054600181600116156101000203166002900480601f0160208091040260200160405190810160405280929190818152602001828054600181600116156101000203166002900480156119415780601f1061191657610100808354040283529160200191611941565b820191906000526020600020905b81548152906001019060200180831161192457829003601f168201915b50505050508152602001600482018054600181600116156101000203166002900480601f0160208091040260200160405190810160405280929190818152602001828054600181600116156101000203166002900480156119e35780601f106119b8576101008083540402835291602001916119e3565b820191906000526020600020905b8154815290600101906020018083116119c657829003601f168201915b5050505050815250508152602001906001019061171b565b50505050905090565b60008060009054906101000a900473ffffffffffffffffffffffffffffffffffffffff16905090565b60008060009054906101000a900473ffffffffffffffffffffffffffffffffffffffff1673ffffffffffffffffffffffffffffffffffffffff163373ffffffffffffffffffffffffffffffffffffffff1614905090565b60088181548110611a9157fe5b90600052602060002090600502016000915090508060000160009054906101000a900463ffffffff1690806001018054600181600116156101000203166002900480601f016020809104026020016040519081016040528092919081815260200182805460018160011615610100020316600290048015611b535780601f10611b2857610100808354040283529160200191611b53565b820191906000526020600020905b815481529060010190602001808311611b3657829003601f168201915b505050505090806002018054600181600116156101000203166002900480601f016020809104026020016040519081016040528092919081815260200182805460018160011615610100020316600290048015611bf15780601f10611bc657610100808354040283529160200191611bf1565b820191906000526020600020905b815481529060010190602001808311611bd457829003601f168201915b505050505090806003018054600181600116156101000203166002900480601f016020809104026020016040519081016040528092919081815260200182805460018160011615610100020316600290048015611c8f5780601f10611c6457610100808354040283529160200191611c8f565b820191906000526020600020905b815481529060010190602001808311611c7257829003601f168201915b505050505090806004018054600181600116156101000203166002900480601f016020809104026020016040519081016040528092919081815260200182805460018160011615610100020316600290048015611d2d5780601f10611d0257610100808354040283529160200191611d2d565b820191906000526020600020905b815481529060010190602001808311611d1057829003601f168201915b5050505050905085565b6060806010600084815260200190815260200160002054604051908082528060200260200182016040528015611d8757816020015b611d74614075565b815260200190600190039081611d6c5790505b509050600080905060008090505b600b80549050811015611f815784600b8281548110611db057fe5b9060005260206000209060040201600301541415611f7457600b8181548110611dd557fe5b906000526020600020906004020160405180608001604052908160008201548152602001600182018054600181600116156101000203166002900480601f016020809104026020016040519081016040528092919081815260200182805460018160011615610100020316600290048015611e915780601f10611e6657610100808354040283529160200191611e91565b820191906000526020600020905b815481529060010190602001808311611e7457829003601f168201915b50505050508152602001600282018054600181600116156101000203166002900480601f016020809104026020016040519081016040528092919081815260200182805460018160011615610100020316600290048015611f335780601f10611f0857610100808354040283529160200191611f33565b820191906000526020600020905b815481529060010190602001808311611f1657829003601f168201915b50505050508152602001600382015481525050838381518110611f5257fe5b6020026020010181905250611f71600183613b3d90919063ffffffff16565b91505b8080600101915050611d95565b508192505050919050565b611f9461409d565b600560008381526020019081526020016000206040518060a001604052908160008201548152602001600182018054600181600116156101000203166002900480601f0160208091040260200160405190810160405280929190818152602001828054600181600116156101000203166002900480156120555780601f1061202a57610100808354040283529160200191612055565b820191906000526020600020905b81548152906001019060200180831161203857829003601f168201915b50505050508152602001600282018054600181600116156101000203166002900480601f0160208091040260200160405190810160405280929190818152602001828054600181600116156101000203166002900480156120f75780601f106120cc576101008083540402835291602001916120f7565b820191906000526020600020905b8154815290600101906020018083116120da57829003601f168201915b50505050508152602001600382018054600181600116156101000203166002900480601f0160208091040260200160405190810160405280929190818152602001828054600181600116156101000203166002900480156121995780601f1061216e57610100808354040283529160200191612199565b820191906000526020600020905b81548152906001019060200180831161217c57829003601f168201915b50505050508152602001600482018054600181600116156101000203166002900480601f01602080910402602001604051908101604052809291908181526020018280546001816001161561010002031660029004801561223b5780601f106122105761010080835404028352916020019161223b565b820191906000526020600020905b81548152906001019060200180831161221e57829003601f168201915b5050505050815250509050919050565b336001600360008373ffffffffffffffffffffffffffffffffffffffff1673ffffffffffffffffffffffffffffffffffffffff16815260200190815260200160002060009054906101000a900461ffff1661ffff16146122e0576040517f08c379a00000000000000000000000000000000000000000000000000000000081526004016122d7906154e4565b60405180910390fd5b600a6040518061014001604052808d81526020018c81526020018b81526020018a8152602001898152602001888152602001878152602001868152602001858152602001848152509080600181540180825580915050906001820390600052602060002090600a020160009091929091909150600082015181600001556020820151816001019080519060200190612379929190613fc6565b506040820151816002019080519060200190612396929190613fc6565b5060608201518160030190805190602001906123b3929190613fc6565b5060808201518160040190805190602001906123d0929190613fc6565b5060a08201518160050190805190602001906123ed929190613fc6565b5060c0820151816006015560e0820151816007019080519060200190612414929190613fc6565b50610100820151816008019080519060200190612432929190613fc6565b5061012082015181600901555050506124686001600f600085815260200190815260200160002054613b3d90919063ffffffff16565b600f6000848152602001908152602001600020819055505050505050505050505050565b606080600e6000848152602001908152602001600020546040519080825280602002602001820160405280156124dc57816020015b6124c96140cc565b8152602001906001900390816124c15790505b509050600080905060008090505b60098054905081101561277857846009828154811061250557fe5b906000526020600020906005020160010154141561276b576009818154811061252a57fe5b90600052602060002090600502016040518060a00160405290816000820154815260200160018201548152602001600282018054600181600116156101000203166002900480601f0160208091040260200160405190810160405280929190818152602001828054600181600116156101000203166002900480156125f05780601f106125c5576101008083540402835291602001916125f0565b820191906000526020600020905b8154815290600101906020018083116125d357829003601f168201915b50505050508152602001600382018054600181600116156101000203166002900480601f0160208091040260200160405190810160405280929190818152602001828054600181600116156101000203166002900480156126925780601f1061266757610100808354040283529160200191612692565b820191906000526020600020905b81548152906001019060200180831161267557829003601f168201915b50505050508152602001600482018054600181600116156101000203166002900480601f0160208091040260200160405190810160405280929190818152602001828054600181600116156101000203166002900480156127345780601f1061270957610100808354040283529160200191612734565b820191906000526020600020905b81548152906001019060200180831161271757829003601f168201915b50505050508152505083838151811061274957fe5b6020026020010181905250612768600183613b3d90919063ffffffff16565b91505b80806001019150506124ea565b508192505050919050565b600b818154811061279057fe5b9060005260206000209060040201600091509050806000015490806001018054600181600116156101000203166002900480601f0160208091040260200160405190810160405280929190818152602001828054600181600116156101000203166002900480156128425780601f1061281757610100808354040283529160200191612842565b820191906000526020600020905b81548152906001019060200180831161282557829003601f168201915b505050505090806002018054600181600116156101000203166002900480601f0160208091040260200160405190810160405280929190818152602001828054600181600116156101000203166002900480156128e05780601f106128b5576101008083540402835291602001916128e0565b820191906000526020600020905b8154815290600101906020018083116128c357829003601f168201915b5050505050908060030154905084565b6000336001600360008373ffffffffffffffffffffffffffffffffffffffff1673ffffffffffffffffffffffffffffffffffffffff16815260200190815260200160002060009054906101000a900461ffff1661ffff1614612987576040517f08c379a000000000000000000000000000000000000000000000000000000000815260040161297e906154e4565b60405180910390fd5b60008090505b600a80549050811015612ae55786600a82815481106129a857fe5b90600052602060002090600a0201600901541480156129e4575085600a82815481106129d057fe5b90600052602060002090600a020160000154145b8015612a585750846040516020016129fc91906153a7565b60405160208183030381529060405280519060200120600a8281548110612a1f57fe5b90600052602060002090600a0201600101604051602001612a4091906153be565b60405160208183030381529060405280519060200120145b15612ad857600a8181548110612a6a57fe5b90600052602060002090600a020160080184604051602001612a8d9291906153d5565b604051602081830303815290604052600a8281548110612aa957fe5b90600052602060002090600a02016008019080519060200190612acd9291906140fb565b506001925050612afe565b808060010191505061298d565b600a80549050811415612afc576000925050612afe565b505b50949350505050565b612b0f61417b565b600d6000838152602001908152602001600020604051806080016040529081600082018054600181600116156101000203166002900480601f016020809104026020016040519081016040528092919081815260200182805460018160011615610100020316600290048015612bc65780601f10612b9b57610100808354040283529160200191612bc6565b820191906000526020600020905b815481529060010190602001808311612ba957829003601f168201915b50505050508152602001600182018054600181600116156101000203166002900480601f016020809104026020016040519081016040528092919081815260200182805460018160011615610100020316600290048015612c685780601f10612c3d57610100808354040283529160200191612c68565b820191906000526020600020905b815481529060010190602001808311612c4b57829003601f168201915b50505050508152602001600282018054600181600116156101000203166002900480601f016020809104026020016040519081016040528092919081815260200182805460018160011615610100020316600290048015612d0a5780601f10612cdf57610100808354040283529160200191612d0a565b820191906000526020600020905b815481529060010190602001808311612ced57829003601f168201915b505050505081526020016003820154815250509050919050565b600a8181548110612d3157fe5b90600052602060002090600a0201600091509050806000015490806001018054600181600116156101000203166002900480601f016020809104026020016040519081016040528092919081815260200182805460018160011615610100020316600290048015612de35780601f10612db857610100808354040283529160200191612de3565b820191906000526020600020905b815481529060010190602001808311612dc657829003601f168201915b505050505090806002018054600181600116156101000203166002900480601f016020809104026020016040519081016040528092919081815260200182805460018160011615610100020316600290048015612e815780601f10612e5657610100808354040283529160200191612e81565b820191906000526020600020905b815481529060010190602001808311612e6457829003601f168201915b505050505090806003018054600181600116156101000203166002900480601f016020809104026020016040519081016040528092919081815260200182805460018160011615610100020316600290048015612f1f5780601f10612ef457610100808354040283529160200191612f1f565b820191906000526020600020905b815481529060010190602001808311612f0257829003601f168201915b505050505090806004018054600181600116156101000203166002900480601f016020809104026020016040519081016040528092919081815260200182805460018160011615610100020316600290048015612fbd5780601f10612f9257610100808354040283529160200191612fbd565b820191906000526020600020905b815481529060010190602001808311612fa057829003601f168201915b505050505090806005018054600181600116156101000203166002900480601f01602080910402602001604051908101604052809291908181526020018280546001816001161561010002031660029004801561305b5780601f106130305761010080835404028352916020019161305b565b820191906000526020600020905b81548152906001019060200180831161303e57829003601f168201915b505050505090806006015490806007018054600181600116156101000203166002900480601f0160208091040260200160405190810160405280929190818152602001828054600181600116156101000203166002900480156130ff5780601f106130d4576101008083540402835291602001916130ff565b820191906000526020600020905b8154815290600101906020018083116130e257829003601f168201915b505050505090806008018054600181600116156101000203166002900480601f01602080910402602001604051908101604052809291908181526020018280546001816001161561010002031660029004801561319d5780601f106131725761010080835404028352916020019161319d565b820191906000526020600020905b81548152906001019060200180831161318057829003601f168201915b505050505090806009015490508a565b6131b5611a2d565b6131f4576040517f08c379a00000000000000000000000000000000000000000000000000000000081526004016131eb90615564565b60405180910390fd5b6131fd81613b92565b50565b606080600f60008481526020019081526020016000205460405190808252806020026020018201604052801561325057816020015b61323d6141a3565b8152602001906001900390816132355790505b509050600080905060008090505b600a8054905081101561377f5784600a828154811061327957fe5b90600052602060002090600a020160090154141561377257600a818154811061329e57fe5b90600052602060002090600a02016040518061014001604052908160008201548152602001600182018054600181600116156101000203166002900480601f01602080910402602001604051908101604052809291908181526020018280546001816001161561010002031660029004801561335b5780601f106133305761010080835404028352916020019161335b565b820191906000526020600020905b81548152906001019060200180831161333e57829003601f168201915b50505050508152602001600282018054600181600116156101000203166002900480601f0160208091040260200160405190810160405280929190818152602001828054600181600116156101000203166002900480156133fd5780601f106133d2576101008083540402835291602001916133fd565b820191906000526020600020905b8154815290600101906020018083116133e057829003601f168201915b50505050508152602001600382018054600181600116156101000203166002900480601f01602080910402602001604051908101604052809291908181526020018280546001816001161561010002031660029004801561349f5780601f106134745761010080835404028352916020019161349f565b820191906000526020600020905b81548152906001019060200180831161348257829003601f168201915b50505050508152602001600482018054600181600116156101000203166002900480601f0160208091040260200160405190810160405280929190818152602001828054600181600116156101000203166002900480156135415780601f1061351657610100808354040283529160200191613541565b820191906000526020600020905b81548152906001019060200180831161352457829003601f168201915b50505050508152602001600582018054600181600116156101000203166002900480601f0160208091040260200160405190810160405280929190818152602001828054600181600116156101000203166002900480156135e35780601f106135b8576101008083540402835291602001916135e3565b820191906000526020600020905b8154815290600101906020018083116135c657829003601f168201915b5050505050815260200160068201548152602001600782018054600181600116156101000203166002900480601f01602080910402602001604051908101604052809291908181526020018280546001816001161561010002031660029004801561368f5780601f106136645761010080835404028352916020019161368f565b820191906000526020600020905b81548152906001019060200180831161367257829003601f168201915b50505050508152602001600882018054600181600116156101000203166002900480601f0160208091040260200160405190810160405280929190818152602001828054600181600116156101000203166002900480156137315780601f1061370657610100808354040283529160200191613731565b820191906000526020600020905b81548152906001019060200180831161371457829003601f168201915b5050505050815260200160098201548152505083838151811061375057fe5b602002602001018190525061376f600183613b3d90919063ffffffff16565b91505b808060010191505061325e565b508192505050919050565b336001600360008373ffffffffffffffffffffffffffffffffffffffff1673ffffffffffffffffffffffffffffffffffffffff16815260200190815260200160002060009054906101000a900461ffff1661ffff161461381f576040517f08c379a0000000000000000000000000000000000000000000000000000000008152600401613816906154e4565b60405180910390fd5b60096040518060a001604052808881526020018781526020018681526020018581526020018481525090806001815401808255809150509060018203906000526020600020906005020160009091929091909150600082015181600001556020820151816001015560408201518160020190805190602001906138a3929190613fc6565b5060608201518160030190805190602001906138c0929190613fc6565b5060808201518160040190805190602001906138dd929190613fc6565b505050506139086001600e600089815260200190815260200160002054613b3d90919063ffffffff16565b600e600088815260200190815260200160002081905550505050505050565b336001600360008373ffffffffffffffffffffffffffffffffffffffff1673ffffffffffffffffffffffffffffffffffffffff16815260200190815260200160002060009054906101000a900461ffff1661ffff16146139bc576040517f08c379a00000000000000000000000000000000000000000000000000000000081526004016139b3906154e4565b60405180910390fd5b6139c885858585613cc0565b7f975cf2b33de9b1a07500492e92dbb084414a16a398d6f61c4272257c6bc2dc00613a156001600760009054906101000a900463ffffffff1663ffffffff16613a9690919063ffffffff16565b8686604051613a26939291906157c8565b60405180910390a15050505050565b60008082840190508363ffffffff168163ffffffff161015613a8c576040517f08c379a0000000000000000000000000000000000000000000000000000000008152600401613a8390615524565b60405180910390fd5b8091505092915050565b6000613ad883836040518060400160405280601e81526020017f536166654d6174683a207375627472616374696f6e206f766572666c6f770000815250613f5f565b905092915050565b60008082840190508361ffff168161ffff161015613b33576040517f08c379a0000000000000000000000000000000000000000000000000000000008152600401613b2a90615524565b60405180910390fd5b8091505092915050565b600080828401905083811015613b88576040517f08c379a0000000000000000000000000000000000000000000000000000000008152600401613b7f90615524565b60405180910390fd5b8091505092915050565b600073ffffffffffffffffffffffffffffffffffffffff168173ffffffffffffffffffffffffffffffffffffffff161415613c02576040517f08c379a0000000000000000000000000000000000000000000000000000000008152600401613bf990615584565b60405180910390fd5b8073ffffffffffffffffffffffffffffffffffffffff166000809054906101000a900473ffffffffffffffffffffffffffffffffffffffff1673ffffffffffffffffffffffffffffffffffffffff167f8be0079c531659141344cd1fd0a4f28419497f9722a3daafe3b4186f6b6457e060405160405180910390a3806000806101000a81548173ffffffffffffffffffffffffffffffffffffffff021916908373ffffffffffffffffffffffffffffffffffffffff16021790555050565b613cec6001600760009054906101000a900463ffffffff1663ffffffff16613a3590919063ffffffff16565b600760006101000a81548163ffffffff021916908363ffffffff1602179055506000613d3a6001600760009054906101000a900463ffffffff1663ffffffff16613a9690919063ffffffff16565b905060086040518060a001604052808363ffffffff168152602001878152602001868152602001858152602001848152509080600181540180825580915050906001820390600052602060002090600502016000909192909190915060008201518160000160006101000a81548163ffffffff021916908363ffffffff1602179055506020820151816001019080519060200190613dd9929190613fc6565b506040820151816002019080519060200190613df6929190613fc6565b506060820151816003019080519060200190613e13929190613fc6565b506080820151816004019080519060200190613e30929190613fc6565b5050505033600c60008363ffffffff1663ffffffff16815260200190815260200160002060006101000a81548173ffffffffffffffffffffffffffffffffffffffff021916908373ffffffffffffffffffffffffffffffffffffffff160217905550613efb6001600460003373ffffffffffffffffffffffffffffffffffffffff1673ffffffffffffffffffffffffffffffffffffffff16815260200190815260200160002060009054906101000a900463ffffffff1663ffffffff16613a3590919063ffffffff16565b600460003373ffffffffffffffffffffffffffffffffffffffff1673ffffffffffffffffffffffffffffffffffffffff16815260200190815260200160002060006101000a81548163ffffffff021916908363ffffffff1602179055505050505050565b60008363ffffffff168363ffffffff1611158290613fb3576040517f08c379a0000000000000000000000000000000000000000000000000000000008152600401613faa91906154c2565b60405180910390fd5b5060008385039050809150509392505050565b828054600181600116156101000203166002900490600052602060002090601f016020900481019282601f1061400757805160ff1916838001178555614035565b82800160010185558215614035579182015b82811115614034578251825591602001919060010190614019565b5b50905061404291906141f6565b5090565b6040518060a0016040528060008152602001600081526020016060815260200160608152602001606081525090565b6040518060800160405280600081526020016060815260200160608152602001600081525090565b6040518060a0016040528060008152602001606081526020016060815260200160608152602001606081525090565b6040518060a0016040528060008152602001600081526020016060815260200160608152602001606081525090565b828054600181600116156101000203166002900490600052602060002090601f016020900481019282601f1061413c57805160ff191683800117855561416a565b8280016001018555821561416a579182015b8281111561416957825182559160200191906001019061414e565b5b50905061417791906141f6565b5090565b6040518060800160405280606081526020016060815260200160608152602001600081525090565b604051806101400160405280600081526020016060815260200160608152602001606081526020016060815260200160608152602001600081526020016060815260200160608152602001600081525090565b61421891905b808211156142145760008160009055506001016141fc565b5090565b90565b60008135905061422a81615b36565b92915050565b60008135905061423f81615b4d565b92915050565b600082601f83011261425657600080fd5b813561426961426482615903565b6158d6565b9150808252602083016020830185838301111561428557600080fd5b614290838284615ae3565b50505092915050565b6000813590506142a881615b64565b92915050565b6000602082840312156142c057600080fd5b60006142ce8482850161421b565b91505092915050565b6000602082840312156142e957600080fd5b60006142f784828501614230565b91505092915050565b6000806000806080858703121561431657600080fd5b600085013567ffffffffffffffff81111561433057600080fd5b61433c87828801614245565b945050602085013567ffffffffffffffff81111561435957600080fd5b61436587828801614245565b935050604085013567ffffffffffffffff81111561438257600080fd5b61438e87828801614245565b925050606061439f8782880161421b565b91505092959194509250565b600080600080608085870312156143c157600080fd5b600085013567ffffffffffffffff8111156143db57600080fd5b6143e787828801614245565b945050602085013567ffffffffffffffff81111561440457600080fd5b61441087828801614245565b935050604085013567ffffffffffffffff81111561442d57600080fd5b61443987828801614245565b925050606085013567ffffffffffffffff81111561445657600080fd5b61446287828801614245565b91505092959194509250565b6000806000806080858703121561448457600080fd5b600085013567ffffffffffffffff81111561449e57600080fd5b6144aa87828801614245565b945050602085013567ffffffffffffffff8111156144c757600080fd5b6144d387828801614245565b935050604085013567ffffffffffffffff8111156144f057600080fd5b6144fc87828801614245565b925050606061450d87828801614299565b91505092959194509250565b60006020828403121561452b57600080fd5b600061453984828501614299565b91505092915050565b600080600080600060a0868803121561455a57600080fd5b600061456888828901614299565b955050602086013567ffffffffffffffff81111561458557600080fd5b61459188828901614245565b945050604086013567ffffffffffffffff8111156145ae57600080fd5b6145ba88828901614245565b935050606086013567ffffffffffffffff8111156145d757600080fd5b6145e388828901614245565b925050608086013567ffffffffffffffff81111561460057600080fd5b61460c88828901614245565b9150509295509295909350565b6000806000806000806000806000806101408b8d03121561463957600080fd5b60006146478d828e01614299565b9a505060208b013567ffffffffffffffff81111561466457600080fd5b6146708d828e01614245565b99505060408b013567ffffffffffffffff81111561468d57600080fd5b6146998d828e01614245565b98505060608b013567ffffffffffffffff8111156146b657600080fd5b6146c28d828e01614245565b97505060808b013567ffffffffffffffff8111156146df57600080fd5b6146eb8d828e01614245565b96505060a08b013567ffffffffffffffff81111561470857600080fd5b6147148d828e01614245565b95505060c06147258d828e01614299565b94505060e08b013567ffffffffffffffff81111561474257600080fd5b61474e8d828e01614245565b9350506101008b013567ffffffffffffffff81111561476c57600080fd5b6147788d828e01614245565b92505061012061478a8d828e01614299565b9150509295989b9194979a5092959850565b600080600080608085870312156147b257600080fd5b60006147c087828801614299565b945050602085013567ffffffffffffffff8111156147dd57600080fd5b6147e987828801614245565b935050604085013567ffffffffffffffff81111561480657600080fd5b61481287828801614245565b925050606061482387828801614299565b91505092959194509250565b6000806000806080858703121561484557600080fd5b600061485387828801614299565b945050602061486487828801614299565b935050604085013567ffffffffffffffff81111561488157600080fd5b61488d87828801614245565b925050606085013567ffffffffffffffff8111156148aa57600080fd5b6148b687828801614245565b91505092959194509250565b600080600080600060a086880312156148da57600080fd5b60006148e888828901614299565b95505060206148f988828901614299565b945050604086013567ffffffffffffffff81111561491657600080fd5b61492288828901614245565b935050606086013567ffffffffffffffff81111561493f57600080fd5b61494b88828901614245565b925050608086013567ffffffffffffffff81111561496857600080fd5b61497488828901614245565b9150509295509295909350565b600061498d8383614f5f565b905092915050565b60006149a18383614fc9565b905092915050565b60006149b583836150be565b905092915050565b60006149c98383615258565b905092915050565b6149da81615a7d565b82525050565b60006149eb82615984565b6149f581856159fa565b935083602082028501614a078561592f565b8060005b85811015614a435784840389528151614a248582614981565b9450614a2f836159c6565b925060208a01995050600181019050614a0b565b50829750879550505050505092915050565b6000614a608261598f565b614a6a8185615a0b565b935083602082028501614a7c8561593f565b8060005b85811015614ab85784840389528151614a998582614995565b9450614aa4836159d3565b925060208a01995050600181019050614a80565b50829750879550505050505092915050565b6000614ad58261599a565b614adf8185615a1c565b935083602082028501614af18561594f565b8060005b85811015614b2d5784840389528151614b0e85826149a9565b9450614b19836159e0565b925060208a01995050600181019050614af5565b50829750879550505050505092915050565b6000614b4a826159a5565b614b548185615a2d565b935083602082028501614b668561595f565b8060005b85811015614ba25784840389528151614b8385826149bd565b9450614b8e836159ed565b925060208a01995050600181019050614b6a565b50829750879550505050505092915050565b614bbd81615a8f565b82525050565b6000614bce826159bb565b614bd88185615a4f565b9350614be8818560208601615af2565b614bf181615b25565b840191505092915050565b6000614c07826159bb565b614c118185615a60565b9350614c21818560208601615af2565b80840191505092915050565b6000614c38826159b0565b614c428185615a3e565b9350614c52818560208601615af2565b614c5b81615b25565b840191505092915050565b6000614c71826159b0565b614c7b8185615a4f565b9350614c8b818560208601615af2565b614c9481615b25565b840191505092915050565b600081546001811660008114614cbc5760018114614ce157614d25565b607f6002830416614ccd8187615a60565b955060ff1983168652808601935050614d25565b60028204614cef8187615a60565b9550614cfa8561596f565b60005b82811015614d1c57815481890152600182019150602081019050614cfd565b82880195505050505b505092915050565b6000614d3a603083615a4f565b91507f53656e646572206e6f7420617574686f72697a656420203a3a3a20497420736860008301527f6f756c64206265206120646f63746f72000000000000000000000000000000006020830152604082019050919050565b6000614da0603983615a4f565b91507f546869732070617469656e742068617320616c7265616479206e6f6e2076617260008301527f6961626c65206578616d696e6174696f6e2073657474696e67000000000000006020830152604082019050919050565b6000614e06601b83615a4f565b91507f536166654d6174683a206164646974696f6e206f766572666c6f7700000000006000830152602082019050919050565b6000614e46603083615a4f565b91507f53656e646572206e6f7420617574686f72697a65642e20497420616c7265616460008301527f792068617320616e206163636f756e74000000000000000000000000000000006020830152604082019050919050565b6000614eac600183615a60565b91507f20000000000000000000000000000000000000000000000000000000000000006000830152600182019050919050565b6000614eec601583615a4f565b91507f73656e646572206e6f7420617574686f72697a656400000000000000000000006000830152602082019050919050565b6000614f2c601383615a4f565b91507f6e6f6e2076616c6964206e6577206f776e6572000000000000000000000000006000830152602082019050919050565b6000608083016000830151614f77600086018261536b565b5060208301518482036020860152614f8f8282614c2d565b91505060408301518482036040860152614fa98282614c2d565b9150506060830151614fbe606086018261536b565b508091505092915050565b600060a083016000830151614fe1600086018261536b565b506020830151614ff4602086018261536b565b506040830151848203604086015261500c8282614c2d565b915050606083015184820360608601526150268282614c2d565b915050608083015184820360808601526150408282614c2d565b9150508091505092915050565b6000608083016000830151848203600086015261506a8282614c2d565b915050602083015184820360208601526150848282614c2d565b9150506040830151848203604086015261509e8282614c2d565b91505060608301516150b3606086018261536b565b508091505092915050565b600060a0830160008301516150d66000860182615389565b50602083015184820360208601526150ee8282614c2d565b915050604083015184820360408601526151088282614c2d565b915050606083015184820360608601526151228282614c2d565b9150506080830151848203608086015261513c8282614c2d565b9150508091505092915050565b600060a083016000830151615161600086018261536b565b50602083015184820360208601526151798282614c2d565b915050604083015184820360408601526151938282614c2d565b915050606083015184820360608601526151ad8282614c2d565b915050608083015184820360808601526151c78282614c2d565b9150508091505092915050565b600060a0830160008301516151ec600086018261536b565b5060208301516151ff602086018261536b565b50604083015184820360408601526152178282614c2d565b915050606083015184820360608601526152318282614c2d565b9150506080830151848203608086015261524b8282614c2d565b9150508091505092915050565b600061014083016000830151615271600086018261536b565b50602083015184820360208601526152898282614c2d565b915050604083015184820360408601526152a38282614c2d565b915050606083015184820360608601526152bd8282614c2d565b915050608083015184820360808601526152d78282614c2d565b91505060a083015184820360a08601526152f18282614c2d565b91505060c083015161530660c086018261536b565b5060e083015184820360e086015261531e8282614c2d565b91505061010083015184820361010086015261533a8282614c2d565b91505061012083015161535161012086018261536b565b508091505092915050565b61536581615a9b565b82525050565b61537481615ac9565b82525050565b61538381615ac9565b82525050565b61539281615ad3565b82525050565b6153a181615ad3565b82525050565b60006153b38284614bfc565b915081905092915050565b60006153ca8284614c9f565b915081905092915050565b60006153e18285614c9f565b91506153ec82614e9f565b91506153f88284614bfc565b91508190509392505050565b600060208201905061541960008301846149d1565b92915050565b6000602082019050818103600083015261543981846149e0565b905092915050565b6000602082019050818103600083015261545b8184614a55565b905092915050565b6000602082019050818103600083015261547d8184614aca565b905092915050565b6000602082019050818103600083015261549f8184614b3f565b905092915050565b60006020820190506154bc6000830184614bb4565b92915050565b600060208201905081810360008301526154dc8184614bc3565b905092915050565b600060208201905081810360008301526154fd81614d2d565b9050919050565b6000602082019050818103600083015261551d81614d93565b9050919050565b6000602082019050818103600083015261553d81614df9565b9050919050565b6000602082019050818103600083015261555d81614e39565b9050919050565b6000602082019050818103600083015261557d81614edf565b9050919050565b6000602082019050818103600083015261559d81614f1f565b9050919050565b600060208201905081810360008301526155be818461504d565b905092915050565b600060208201905081810360008301526155e08184615149565b905092915050565b6000602082019050818103600083015261560281846151d4565b905092915050565b600060208201905061561f600083018461535c565b92915050565b60006101408201905061563b600083018d61537a565b818103602083015261564d818c614c66565b90508181036040830152615661818b614c66565b90508181036060830152615675818a614c66565b905081810360808301526156898189614c66565b905081810360a083015261569d8188614c66565b90506156ac60c083018761537a565b81810360e08301526156be8186614c66565b90508181036101008301526156d38185614c66565b90506156e361012083018461537a565b9b9a5050505050505050505050565b6000608082019050615707600083018761537a565b81810360208301526157198186614c66565b9050818103604083015261572d8185614c66565b905061573c606083018461537a565b95945050505050565b600060a08201905061575a600083018861537a565b615767602083018761537a565b81810360408301526157798186614c66565b9050818103606083015261578d8185614c66565b905081810360808301526157a18184614c66565b90509695505050505050565b60006020820190506157c26000830184615398565b92915050565b60006060820190506157dd6000830186615398565b81810360208301526157ef8185614bc3565b905081810360408301526158038184614bc3565b9050949350505050565b60006080820190506158226000830187615398565b81810360208301526158348186614c66565b905081810360408301526158488185614c66565b9050818103606083015261585c8184614c66565b905095945050505050565b600060a08201905061587c6000830188615398565b818103602083015261588e8187614c66565b905081810360408301526158a28186614c66565b905081810360608301526158b68185614c66565b905081810360808301526158ca8184614c66565b90509695505050505050565b6000604051905081810181811067ffffffffffffffff821117156158f957600080fd5b8060405250919050565b600067ffffffffffffffff82111561591a57600080fd5b601f19601f8301169050602081019050919050565b6000819050602082019050919050565b6000819050602082019050919050565b6000819050602082019050919050565b6000819050602082019050919050565b60008190508160005260206000209050919050565b600081519050919050565b600081519050919050565b600081519050919050565b600081519050919050565b600081519050919050565b600081519050919050565b6000602082019050919050565b6000602082019050919050565b6000602082019050919050565b6000602082019050919050565b600082825260208201905092915050565b600082825260208201905092915050565b600082825260208201905092915050565b600082825260208201905092915050565b600082825260208201905092915050565b600082825260208201905092915050565b600081905092915050565b6000615a7682615aa9565b9050919050565b6000615a8882615aa9565b9050919050565b60008115159050919050565b600061ffff82169050919050565b600073ffffffffffffffffffffffffffffffffffffffff82169050919050565b6000819050919050565b600063ffffffff82169050919050565b82818337600083830152505050565b60005b83811015615b10578082015181840152602081019050615af5565b83811115615b1f576000848401525b50505050565b6000601f19601f8301169050919050565b615b3f81615a6b565b8114615b4a57600080fd5b50565b615b5681615a7d565b8114615b6157600080fd5b50565b615b6d81615ac9565b8114615b7857600080fd5b5056fea365627a7a723158200bb6f7f29482e0e637a2f365e8b8668bcdce8c9c61310186a996f7572c80fe366c6578706572696d656e74616cf564736f6c63430005100040",
  "source": "// SPDX-License-Identifier: MIT\r\npragma solidity >=0.5.0 <0.7.0;\r\n//pragma solidity ^0.5.16;\r\npragma experimental ABIEncoderV2;\r\n\r\nimport \"./SafeMath.sol\";\r\nimport \"./Doctor.sol\";\r\nimport \"./NonVariableExamination.sol\";\r\nimport \"./SpecialtyMedicine.sol\";\r\nimport \"./Allergy.sol\";\r\nimport \"./Examination.sol\";\r\n\r\ncontract Patient is Doctor, NonVariableExamination, SpecialtyMedicine, Allergy, Examination {\r\n\r\n    using SafeMath for uint256;\r\n    using SafeMath32 for uint32;\r\n    using SafeMath16 for uint16;\r\n\r\n    uint32 counterPatient = 0;\r\n\r\n    struct PatientInfo {\r\n        uint32 patientId;\r\n        string firstName;\r\n        string lastName;\r\n        string gender;\r\n        string addressOfPatient;\r\n    }\r\n\r\n    PatientInfo[] public patients;\r\n    ExaminationInfo[] public orderExamination;\r\n    SpecialtyMedicineInfo[] public allSpecialtyMedicine;\r\n    AllergyInfo[] public allAllergies;\r\n\r\n    event NewPatient(uint32 patientId, string firstName, string lastName);\r\n\r\n    mapping (uint32 => address) patientCreatedBy;\r\n    mapping (uint => NonVariableExaminationInfo) nonVariableExaminationOfPatient; // keep a non variable examination\r\n    mapping (uint => uint) orderExaminationToPatientCount;\r\n    mapping (uint => uint) specialtyMedicineToPatientCount;\r\n    mapping (uint => uint) allergyPatientCount;\r\n    mapping (uint => uint16) nonVariableExaminationOfPatientCount;\r\n\r\n    function _createPatient(string memory _firstName,\r\n        string memory _lastName,\r\n        string memory _gender,\r\n        string memory _addressOfPatient) private {\r\n        counterPatient = counterPatient.add(1);\r\n        uint32 idPatient = counterPatient.sub(1);\r\n        patients.push(PatientInfo(idPatient, _firstName, _lastName, _gender, _addressOfPatient));\r\n        patientCreatedBy[idPatient] = msg.sender;\r\n        ownerPatientCount[msg.sender] = ownerPatientCount[msg.sender].add(1);\r\n    }\r\n\r\n    function addPatient(string memory _firstName,\r\n        string memory _lastName,\r\n        string memory _gender,\r\n        string memory _addressOfPatient) public isDoctor(msg.sender) {\r\n        _createPatient(_firstName, _lastName, _gender, _addressOfPatient);\r\n        emit NewPatient(counterPatient.sub(1), _firstName, _lastName);\r\n    }\r\n\r\n    function getAllPatient() public view returns (PatientInfo[] memory) {\r\n        return patients;\r\n    }\r\n\r\n    /* Record the non-variable biological examinations of a patient i.e blood group, rhesus, electrophoresis\r\n    It records these parameters once time */\r\n    function setNonVariableExamination(string memory _bloodGroup,\r\n        string memory _rhesus,\r\n        string memory _electrophoresis,\r\n        uint _patientId) public isDoctor(msg.sender) {\r\n        require(nonVariableExaminationOfPatientCount[_patientId] == 0, 'This patient has already non variable examination setting');\r\n        nonVariableExaminationOfPatient[_patientId] = NonVariableExaminationInfo(_bloodGroup,\r\n        _rhesus,\r\n        _electrophoresis,\r\n        _patientId);\r\n        nonVariableExaminationOfPatientCount[_patientId] = nonVariableExaminationOfPatientCount[_patientId].add(1);\r\n    }\r\n\r\n    // Recover the non-variable biological examinations of a patient i.e blood group, rhesus, electrophoresis\r\n    function getNonVariableExamination(uint _patientId) public view returns (NonVariableExaminationInfo memory){\r\n        return nonVariableExaminationOfPatient[_patientId];\r\n    }\r\n\r\n    // Add a speciality medicine prescribe by the doctor to any patient\r\n    function prescribeSpecialtyMedicine(uint _documentId,\r\n        string memory _medicationCode,\r\n        string memory _medicationName,\r\n        string memory _normalStartDate,\r\n        string memory _normalEndDate,\r\n        string memory _DosageUnit,\r\n        uint _DosageQuantity,\r\n        string memory _prescriptionDate,\r\n        string memory _observation,\r\n        uint _patientId) public isDoctor(msg.sender) {\r\n        allSpecialtyMedicine.push(SpecialtyMedicineInfo(_documentId,\r\n            _medicationCode,\r\n            _medicationName,\r\n            _normalStartDate,\r\n            _normalEndDate,\r\n            _DosageUnit,\r\n            _DosageQuantity,\r\n            _prescriptionDate,\r\n            _observation,\r\n            _patientId));\r\n        specialtyMedicineToPatientCount[_patientId] = specialtyMedicineToPatientCount[_patientId].add(1);\r\n    }\r\n\r\n    // During the use of the drug the patient noticed side effects. He reports them to the doctor who records them\r\n    function setObservationAfterPrescription(uint _patientId,\r\n        uint _documentId,\r\n        string memory _medicationCode,\r\n        string memory _observation) public isDoctor(msg.sender) returns (bool) {\r\n        uint i;\r\n        for(i = 0; i < allSpecialtyMedicine.length; i++) {\r\n            if (allSpecialtyMedicine[i].patientId == _patientId &&\r\n                allSpecialtyMedicine[i].documentId == _documentId &&\r\n                keccak256(abi.encodePacked(allSpecialtyMedicine[i].medicationCode)) == keccak256(abi.encodePacked(_medicationCode))) {\r\n                allSpecialtyMedicine[i].observation = string(abi.encodePacked(allSpecialtyMedicine[i].observation, \" \",_observation));\r\n                return true;\r\n            }\r\n        }\r\n        if (i == allSpecialtyMedicine.length) {\r\n            return false;\r\n        }\r\n    }\r\n\r\n    // Get all medecide took by one patient\r\n    function getAllPrescribeMedicine(uint _patientId) public view returns (SpecialtyMedicineInfo[] memory) {\r\n        SpecialtyMedicineInfo[] memory allMedicine = new SpecialtyMedicineInfo[](specialtyMedicineToPatientCount[_patientId]);\r\n        uint counter = 0;\r\n        for(uint i = 0; i < allSpecialtyMedicine.length; i++) {\r\n            if (allSpecialtyMedicine[i].patientId == _patientId) {\r\n                allMedicine[counter] = allSpecialtyMedicine[i];\r\n                counter = counter.add(1);\r\n            }\r\n        }\r\n        return allMedicine;\r\n    }\r\n\r\n    // Add alergies record\r\n    function addAllergy(uint _allergytId, string memory _allergyName, string memory _observation, uint _patientId) public isDoctor(msg.sender) {\r\n        allAllergies.push(AllergyInfo(_allergytId,\r\n            _allergyName,\r\n            _observation,\r\n            _patientId));\r\n        allergyPatientCount[_patientId] = allergyPatientCount[_patientId].add(1);\r\n\r\n    }\r\n\r\n    // Get allergies of a patient through its Id\r\n    function getAllergies(uint _patientId) public view returns (AllergyInfo[] memory) {\r\n        AllergyInfo[] memory allAllergiesOfPatient = new AllergyInfo[](allergyPatientCount[_patientId]);\r\n        uint counter = 0;\r\n        for(uint i = 0; i < allAllergies.length; i++) {\r\n            if (allAllergies[i].patientId == _patientId) {\r\n                allAllergiesOfPatient[counter] = allAllergies[i];\r\n                counter = counter.add(1);\r\n            }\r\n        }\r\n        return allAllergiesOfPatient;\r\n    }\r\n\r\n    //Records a medical examination prescription made by a doctor\r\n    function orderAnExamination(uint _patientId,\r\n        uint _docExaminationId,\r\n        string memory _codeExaminationName,\r\n        string memory _examinationName,\r\n        string memory _orderedDate) public isDoctor(msg.sender) {\r\n        orderExamination.push(ExaminationInfo(_patientId,\r\n        _docExaminationId,\r\n        _codeExaminationName,\r\n        _examinationName,\r\n        _orderedDate));\r\n        orderExaminationToPatientCount[_patientId] = orderExaminationToPatientCount[_patientId].add(1);\r\n    }\r\n\r\n    //Returns all the different medical exams prescribed to a given patient\r\n    function allExaminationOrderToPatient(uint _patientId) public view returns (ExaminationInfo[] memory){\r\n        ExaminationInfo[] memory myExaminations = new ExaminationInfo[](orderExaminationToPatientCount[_patientId]);\r\n        uint counter = 0;\r\n        for(uint i = 0; i < orderExamination.length; i++) {\r\n            if (orderExamination[i].patientId == _patientId) {\r\n                myExaminations[counter] = orderExamination[i];\r\n                counter = counter.add(1);\r\n            }\r\n        }\r\n        return myExaminations;\r\n    }\r\n\r\n    //Record the result of a prescribed medical examination\r\n    function addResultOfOrderExamination(uint _docResultId,\r\n        uint _docExaminationId,\r\n        string memory _resultCode,\r\n        string memory _codeResultName,\r\n        string memory _observationDate) public isDoctor(msg.sender){\r\n        resultOfAnExamination[_docExaminationId] = ResultExaminationInfo(_docResultId,\r\n        _docExaminationId,\r\n        _resultCode,\r\n        _codeResultName,\r\n        _observationDate);\r\n    }\r\n\r\n    //Recover the result of an examination prescribed by a doctor\r\n    function getResultOfOrderExamination(uint _docExaminationId) public view returns (ResultExaminationInfo memory) {\r\n        return resultOfAnExamination[_docExaminationId];\r\n    }\r\n\r\n    //Record the result detail of a prescribed medical examination\r\n    function addResultDetailExamination(uint _docResultId,\r\n        string memory _componentName,\r\n        string memory _labName,\r\n        string memory _resultValue,\r\n        string memory _resultObservation) public isDoctor(msg.sender) {\r\n        detailOfResultExamination[_docResultId] = ResultExaminationDetailInfo(_docResultId,\r\n        _componentName,\r\n        _labName,\r\n        _resultValue,\r\n        _resultObservation);\r\n    }\r\n\r\n    //Recover the result detail of an examination prescribed by a doctor\r\n    function getResultDetailExamination(uint _docResultId) public view returns (ResultExaminationDetailInfo memory) {\r\n        return detailOfResultExamination[_docResultId];\r\n    }\r\n}",
  "sourcePath": "C:\\Code\\healthBook\\contracts\\Patient.sol",
  "compiler": {
    "name": "solc",
    "version": "0.5.16+commit.9c3226ce.Emscripten.clang"
  },
  "schemaVersion": "3.2.2",
  "updatedAt": "2020-07-15T09:35:03.287Z",
  "devdoc": {
    "methods": {
      "isOwner()": {
        "return": "true if `msg.sender` is the owner of the contract."
      },
      "owner()": {
        "return": "the address of the owner."
      },
      "renounceOwnership()": {
        "details": "Allows the current owner to relinquish control of the contract."
      },
      "transferOwnership(address)": {
        "details": "Allows the current owner to transfer control of the contract to a newOwner.",
        "params": {
          "newOwner": "The address to transfer ownership to."
        }
      }
    }
  },
  "userdoc": {
    "methods": {
      "renounceOwnership()": {
        "notice": "Renouncing to ownership will leave the contract without an owner. It will not be possible to call the functions with the `onlyOwner` modifier anymore."
      }
    }
  }
}